:020000040000FA
:06000000020A630202186F
:03002B0002079633
:0300430002077041
:0300530002015453
:03006B000206E9A1
:100083000201B4010101FF050301C510C510C5102C
:10009300C5107B0F750FC5107C2A00000000B8291E
:1000A300000000000C0000000C0001FFFF01010133
:1000B300004405000000E8039505E80364006400BC
:1000C300B80102020000000405020701051E020533
:1000D3001E0A03B80B020102018080029651180028
:1000E3000B00A404000E325041592E5359532E4491
:1000F300444630310000A4040008A000000333018B
:1001030001010000A4040008A00000033301010260
:100113000000A4040008A0000003330101030080D1
:10012300A80000238321300000000000000000002D
:1001330000000000000002500000000000097815D4
:10014300020600DEADBEEF0000B2010C00020206A3
:1001530012C0E074F2120498A2AFE433FED2AFE50A
:10016300A7FFE5A1F5085F5410600612187575A185
:10017300EFE5085F5408600812187B75A1F7802427
:10018300E508A2E092F0EFA2E082F05017906198A8
:10019300E0F8900CA8E0C398A2D265D0335002E8EF
:1001A300F075A1FE751A00EEA2E092AF7F01020482
:1001B300F7C0E074F2120498A2AFE433FED2AF901A
:1001C30061A4E0F8759B00E59158540860087591A7
:1001D300F71218C38023E59158541060087591EF06
:1001E3001218C98014E591A2E092F0E8A2E082F02F
:1001F3005007E0C2E0F0121A259061A3E0F8E5E9A8
:10020300585404600E1219FB75E9FB906193E0A248
:10021300E640F2808FC0E074F2120498A2AFE43398
:10022300FED2AF9061A5E0F8E5BF585404600675AF
:10023300BFFB121A3D0201A7C3E498F8E499F9122F
:10024300027C8026C3E49AFAE49BFBE920E7E912E7
:10025300027CE498F8E499F922C3E498F8E499F964
:1002630012027CE498F8E499F9C3E49AFAE49BFB5C
:1002730022EB20E7CFE920E7E0B90010BB0008E854
:100283008AF084F8AAF022E4FBC8FA22EB70227BFE
:1002930010C833C8C933C9335007C39AC3DBF280CC
:1002A300069A50012ADBEAC833F4C8C933F4C9FA01
:1002B3002275F008E4C833C8C933C933C99AC99B46
:1002C3005004C92AC93BD5F0ECFBC833F4C8E4C9D0
:1002D300FA22080808EAC0E0EBC0E086F0E7A4FAD7
:1002E300180986F0E7A42AFA180986F0E7A42AFA7F
:1002F300180986F0E7A42AFA1986F0E7A4FBE5F0CB
:100303002AFA190886F0E7A42BFBE5F03AFA190854
:1003130086F0E7A42BFBE5F03AFA18180986F0E714
:10032300A4C5F02BFBE43AFA1908E7C5F0C6A426E6
:10033300F6E5F03BFBE43AFA1886F0E7A4F6E5F0BD
:100343000826F6E43B08F6E43A08F6D0E0FBD0E0F2
:10035300FA22E4CFC0E0E4CEC0E0E4CDC0E0E4CCD8
:10036300C0E075F020E626F608E633F608E633F635
:1003730008E633F6181818EC33FCED33FDEE33FEC4
:10038300EF33FFC3EC9709ED9709EE9709EF971940
:100393001919400FFFEC97FC09ED97FD09EE97FE45
:1003A300191906D5F0BFECF709EDF709EEF709EFD8
:1003B300F7191919D0E0FCD0E0FDD0E0FED0E0FF42
:1003C300222518C582C0E0E51934FFC583C0E0E5E6
:1003D30018C3958224F810AF088583198582188085
:1003E30008858319858218D2AFCEF0A3E520F0A348
:1003F3007808E608F0A3DEFAEFF0A3E58124FAF823
:10040300E608F0A3E608F0A3E608F0A30808E60868
:10041300F0A3E608F0A315811581D0E0FED0E0F843
:10042300158115811581E8C0E0EEC0E022120ADDD6
:10043300B90003020482E49003017800790E80027C
:10044300F0A3D8FCD9FA781A9000867A01BA000290
:100453008007E493A3F608DAF97A007B119000870A
:1004630078CE79018015E493A3AD82AE838A828B23
:1004730083F0A3AA82AB838D828E83D8E9D9E775F3
:10048300828C7583A2740312083B7582BF75831C2B
:10049300740012083BC0D02518C582C0E0E51934AA
:1004A300FFC583C0E0E518C3958224F310AF088528
:1004B30083198582188008858319858218D2AFC86D
:1004C300F0A3E9F0A3EAF0A3EBF0A37908E709F0BE
:1004D300A3D8FAECF0A3EDF0A3EEF0A3EFF0A3D0D2
:1004E300E0F0A3D0E0F0A3D0E0F0A3E520F0A3E593
:1004F300F0F0A322851983851882E0C0E0A3E0F918
:10050300A3E0FAA3E0FBA37808E0F608A3DFFAE090
:10051300FCA3E0FDA3E0FEA3E0FFA3E0C0E0A3E0B3
:10052300C0E0A3E0F5D0A3E0F520A3E0A3F5F0102D
:10053300AF088583198582188008858319858218F9
:10054300D2AFD082D083D0E0F8D0E0320875F0107B
:100553008E218F228582268583258518828519839E
:10056300E0CEA3E0CF852682852583EBC9EAC8EDDB
:10057300CBECCAC3E833C8E933C9EA33CAEB33CB9C
:10058300C3EA9EF524EB9FF523B35004AB23AA24BF
:10059300EC33CCED33CDD5F0DAAE21AF2222D083CC
:1005A300D082ECC0E0EDC0E0E493A3FCE493A3FDB0
:1005B300ED4C600D120679EC24FFFCED34FFFD8059
:1005C300EFE493A3FCE493A3FDED4C600D12074508
:1005D300EC24FFFCED34FFFD80EFD0E0FDD0E0FC28
:1005E300E493A3C0E0E493C0E022D083D082E9C0C7
:1005F300E0E493A3C386F0C5F095F0F908E493A370
:1006030086F0C5F095F0700BE493A3C3994005E918
:10061300048002A3E475F002A42582F582E5F03597
:1006230083F583D0E0F9E493A3C0E0E493C0E02230
:10063300851983851882E0A3FEE0A3F5207808E0FE
:10064300A3F608DFFAE0A3FFE0A3C0E0E0A3C0E065
:10065300E0A3C0E0E0A3C0E0E0A3C0E010AF0885E2
:1006630082188583198008858218858319D2AFD0B3
:1006730083D082020841C0E0C3E4939608740193D7
:100683009618400FE4936670080874019366187017
:10069300007019A3A3C3E49396087401939618A357
:1006A300A3400DD0E0D0E0D0E00205DDA3A3A3A3D7
:1006B300A3A3D0E0227404800474028000CCC0E0C1
:1006C300EDC0E0E518C39CCCAD1950011D10AF0679
:1006D3008C188D1980068C188D19D2AF1207DCD0B7
:1006E300E0FDD0E0FC22C0E074F2120498A2AFE473
:1006F30033FED2AFE589A2E04006E589A2E15003CB
:100703001217BB758900C2C5751A00EEA2E092AF3D
:100713007F010204F774028000CCC0E0EDC0E0E585
:1007230018C39CCCAD1950011D10AF068C188D1940
:1007330080068C188D19D2AF1207BAD0E0FDD0E035
:10074300FC22C0E0C0F088F0E493667008087401EE
:100753009366187000A8F0A3A3700BD0F0D0E0D07C
:10076300E0D0E00205DDA3A3D0F0D0E022C0E07426
:10077300F2120498A2AFE433FED2AFC2C0E5D1A215
:10078300E45003121725751A00EEA2E092AF7F0121
:100793000204F7C0E0C0D0E8C0E0E9C0E0E5A8D2B9
:1007A300AFC2C7751A00A2E7A2E792AFD0E0F9D0B3
:1007B300E0F8D0D0D0E032CAC0E0E493A3C582CC45
:1007C300C582C583CDC583F0A3C582CCC582C5834D
:1007D300CDC583DAE5D0E0CA22CAC0E0E0A3C58272
:1007E300CCC582C583CDC583F0A3C582CCC582C5E4
:1007F30083CDC583DAE6D0E0CA227009080808224F
:100803006016181818C6C333C608C633C608C633DD
:10081300C608C633C6D5E0EA22C008C3E096F50889
:1008230008A3E096420808A3E096420808A3E096CE
:1008330045087001D3D00822C09FF59FE473D09F71
:1008430022D083D082C09FE493C0E0740193C0E0C0
:10085300740293F59F227404800A74038006740261
:1008630080027401C0E0F404120874D0E0120AA0FC
:10087300222518F58210AF08F518400C15198008C9
:10088300F51840021519D2AF8519832200C0D0256F
:100893001810AF08F518500C05198008F518500208
:1008A3000519D2AFD0D022BB0102E722C082C08398
:1008B30089828A83BB0003E08002E493D083D082E1
:1008C300226016080808C6C313C618C613C618C67E
:1008D30013C618C613C6D5E0EA222518F8E435195D
:1008E300F9222518FAE43519FB222518FCE43519F9
:1008F300FD22C3E0C696F608A3E0C696F608A3E079
:10090300C696F608A3E0C696F622251810AF08F59A
:1009130018400C15198008F51840021519D2AF229A
:10092300E066701008A3E066700A08A3E06670042E
:1009330008A3E06622C3E09608A3E09608A3E09626
:1009430008A3E096A2D265D03322E76670100809A7
:10095300E766700A0809E76670040809E76622C3B8
:10096300E697F60809E697F60809E697F60809E612
:1009730097F622C3E096F008A3E096F008A3E0966A
:10098300F008A3E096F022700422600D18C6C3336A
:10099300C608C633C6D5E0F41822E647F60809E6CA
:1009A30047F60809E647F60809E647F622E026F087
:1009B30008A3E036F008A3E036F008A3E036F022FF
:1009C300E627F60809E637F60809E637F60809E6E2
:1009D30037F622E657F60809E657F60809E657F60A
:1009E3000809E657F622E056F608A3E056F608A3F0
:1009F300E056F608A3E056F622E056F008A3E056C8
:100A0300F008A3E056F008A3E056F022E026F6082B
:100A1300A3E036F608A3E036F608A3E036F622E4B0
:100A2300C396F608E496F608E496F608E496F622EA
:100A3300C6F4C608C6F4C608C6F4C608C6F4C62279
:100A4300C3E7960809E7960809E7960809E7962297
:100A5300C3E09608A3E09608A3E09608A3E09622D5
:100A630075D00075814075180175190300020430B3
:100A7300E6F008A3E6F008A3E6F008A3E6F0226098
:100A83000C08C6C313C618C613C6D5E0F422E0F695
:100A930008A3E0F608A3E0F608A3E0F622CAC0E044
:100AA300E6F0A308DAFAD0E0FA22E8F0A3E9F0A32B
:100AB300EAF0A3EBF022E0F8A3E0F9A3E0FAA3E065
:100AC300FB22EAF0A3EBF0A3ECF0A3EDF022E0FAB3
:100AD300A3E0FBA3E0FCA3E0FD22E5C754F8440137
:100AE300F5C77901222518F582E43519F58322C269
:100AF300AF75D69F02000022120844C557001208A2
:100B030044625800120844AA5800120844195900B4
:100B1300120844685B00120844BB5C001208445E80
:100B23005D00120844EB5D00120844985E00120851
:100B330044CC5E00120844415F001208441B60006D
:100B4300120844D96000120844F160001208448876
:100B53006100120844F96300120844FF650012089B
:100B6300441D6600120844008002120844128002E9
:100B7300120844648002120844C580021208444FDC
:100B83008102120844F381021208444782021208C8
:100B930044608202120844868202120844C182021F
:100BA3001208440583021208442C83021208447D70
:100BB30083021208442D8402120844E584021208B9
:100BC30044AD85021208448A860212084410870243
:100BD3001208441F87021208442A8702120844336A
:100BE3008802120844448802120844BA8802120890
:100BF300444C8902120844A489021208446A8A02F6
:100C03001208449B8A02120844E08A02120844ED47
:100C13008A02120844818C02120844E48D021208ED
:100C230044008F021208446A91021208447591022B
:100C33001208447F91021208448A910212084494D4
:100C430091021208449E9102120844A991021208CB
:100C530044B49102120844E5910212084409920235
:100C63001208442D9202120844929202120844D6AA
:100C73009202120844F29202120844699302120883
:100C830044A19302120844ED93021208444A9402C9
:100C93001208442C9602120844B2960212084483A6
:100CA3009702120844939A02120844E89A0212081F
:100CB30044149B02120844609C02120844B09C0234
:100CC300120844059D02120844069E021208449E1F
:100CD3009E02120844209F02120844C09F02120879
:100CE30044B58001120844EE8001120844C8820111
:100CF300120844078301120844518301120844F681
:100D0300830112084455840112084489840112089E
:100D130044F684011208441386011208441B870118
:100D2300120844B18701120844F88A01120844A149
:100D33008B011208447D8C01120844DE8C011208D9
:100D430044FB8D01120844259001120844DC9001F4
:100D5300120844E69001120844199101120844E074
:100D630091011208447B9201120844E09201120897
:100D7300440993011208442B93011208445A950124
:100D8300120844319601120844759601120844E290
:100D930096011208449D9701120844CF9701120847
:100DA300441398011208444698011208449B980181
:100DB300120844F09801120844849901120844E689
:100DC30099011208444E9A01120844F79B01120834
:100DD30044DF9C01120844219E011208444FA001E4
:100DE3001208440FA1011208443EA301120844E172
:100DF300A3011208441FA401120844CBA501120841
:100E030044DFA501120844E9A50112084413A60111
:100E13001208441FA6011208443EA601120844F515
:100E2300A60112084434A7011208443EA701120880
:100E330044F2A701120844F1A801120844EAA901E7
:100E430012084487AA0112084429AB01120844403E
:100E5300AB0112084477AB0112084495AB011208A9
:100E630044D9AB01120844FEAB01120844E4AC01BF
:100E730012084450AD01120844CAAD01120844D906
:100E8300AE0112084418B0011208447AB0011208E6
:100E93004434B10112084457B1011208442BB20182
:100EA30012084476B201120844B8B2011208440F82
:100EB300B30112084446B30112084474B301120883
:100EC30044ADB301120844D2B3011208445AB40129
:100ED3001208447DB601120844DCB60112084470BE
:100EE300B701120844DCB70112084430B8011208F4
:100EF300446AB801120844DED80212084416D90223
:100F030012084437D90212084479D902120844DF7F
:100F1300D902120844E9D902120844F9D902120885
:100F2300442EDA0212084477DD0212084421DF025C
:100F330012084421E102120844CCB90112084426E4
:100F4300BA0112084482BA01120844CEBA01120847
:100F530044E9BA011208441ABB0112084437BB0121
:100F630012084443BB01120844B7BC01120844D021
:100F7300BC0112084437BD011208444ABD011208DE
:100F83004458BD011208440CBE01120844F0BE01CE
:100F9300120844F6BF011208447CC00112084486BB
:100FA300C001120844F3C0011208440AC101120827
:100FB300443CC10112084475C1011208449FC10198
:100FC30012084400C20112084420C2011208443E20
:100FD300C20112084484C201120844AAC3011208C0
:100FE30044F7C30112084426C4011208449CC401F7
:100FF300120844C4C401120844FDC4011208440B7E
:10100300C50112084463C501120844B2C5011208A0
:1010130044F1C50112084421C6011208444DC6011A
:1010230012084458C60112084476C601120844380F
:10103300C70112084442C7011208447DC7011208C0
:101043004493C7011208449CC701120844F1C70125
:1010530012084405C80112084413C90112084426A2
:10106300C9011208443DC90112084452C9011208BA
:1010730044F4C90112084477CA0112084435CB016C
:1010830012084440CB0112084466CC011208448282
:10109300CC01120844D4CC0112084413CD01120828
:1010A3004428CD011208446ACD01120844B7CF0188
:1010B30012084435D001120844A8D001120844CACA
:1010C300D201120844E2D201120844E5D201120807
:1010D30044F1D20112084405D3011208440DD3018F
:1010E30012084440D301120844F0D30112084466A5
:1010F300D401120844D9D4011208448DD501120831
:101103004442D60112084461D60112084401D701B2
:101113001208440DD70112084438D7011208443B82
:10112300D7011208446AD7011208447FD701120875
:1011330044E9D70112084411D901120844E9D9013D
:1011430012084474DA011208448DDB011208444A80
:10115300DC0112084483DC01120844B4DC011208E8
:101163004454DD0112084484DD011208445FDE01AA
:10117300120844F8DE0112084483DF0112084434E4
:10118300E001120844B6E001120844E8E001120845
:101193004429E1011208445EE10112084441BA0204
:1011A300120844AABA02120844E7BA0212084441D8
:1011B300BB02120844CCBD02120844E8BF02120865
:1011C3004402C3021208442EC30212084458C30245
:1011D300120844DCC30212084404C4021208442B5C
:1011E300C40212084463C402120844BAC4021208B7
:1011F30044B2F20112084430F30112084474F301BB
:10120300120844E7F301120844A3F501120844BF8E
:10121300F50112084404F60112084492F60112087B
:1012230044EAF6011208440FF80112084423F901B5
:101233001208447AF901120844E9F9011208442B0F
:10124300FA011208446CFA0112084427FB01120840
:10125300441DFC0112084456FC01120844AEFC0173
:10126300120844E5FC0112084479FD0112084420E8
:10127300FE01120844E28F03120844C190031208CE
:10128300448BFE0112084400FF011208440BFF01C6
:1012930012084400EA0212084463EA02120844E80E
:1012A300EA0212084409EB02120844E1EB021208B5
:1012B30044EAEB021208443BEC0212084464EC02D9
:1012C300120844BAEC0212084439ED021208446FC2
:1012D300ED02120844C1ED0212084432EE02120874
:1012E30044A8EE02120844F4EE0212084434EF025A
:1012F3001208446CEF021208447EEF021208449075
:10130300EF02120844AFEF02120844B8EF021208CA
:10131300447DF002120844A8F0021208443FB003CF
:101323001208446BB40312084445A003120844870F
:101333004A00120844C6A00312084429A203120853
:10134300444E66001208448C6700120844C36700C9
:10135300120844756900120844A66900120844453E
:101363006C00120844856C001208441A6E001208BF
:1013730044AF6E001208440D6F00120844916F00D1
:10138300120844C96F001208440B7000120844B8D5
:101393005700120844467300120844887500120867
:1013A30044B67500120844DF7500120844E875005E
:1013B3001208445F76001208441A7A001208441B8C
:1013C300B40312084431B40312084440B4031208AE
:1013D30044D58803120844EA880312084485890324
:1013E300120844C18903120844D88903120844FF30
:1013F3008903120844418A03120844728A031208BB
:1014030044AD8A031208440E8C031208444F8C0324
:1014130012084417B1031208444DB103120844697A
:10142300B103120844ABB103120844BBB103120861
:1014330044BCE1011208440EE2011208446AE201CD
:1014430012084421E30112084485E30112084422EF
:10145300E4011208446CE401120844B0E4011208E8
:1014630044B6E60112084423E7011208445AE7018F
:1014730012084492E70112084435E901120844C0F6
:10148300E90112084441EA0112084458EA0112082A
:10149300446BEA01120844B6EA01120844CCEA019B
:1014A300120844D9EA0112084409EB011208441F47
:1014B300EB01120844A1EB01120844FBEB011208F3
:1014C3004445EC011208444EED01120844C4EF01F7
:1014D3001208445DF0011208449EF0011208442AE8
:1014E300F1011208444CF1011208444FF1011208B2
:1014F3004452F101120844DEF10112084407F201DB
:1015030012084433F2011208446EF20112084479BE
:10151300F20112084498B303120844A4B303120857
:1015230044DEB30312084473A0021208449EA002CF
:1015330012084463A102120844F1A10212084453A1
:10154300A2021208449AA20212084414A302120827
:1015530044A2A30212084422A40212084461A40272
:1015630012084432A902120844A4AA0212084442EF
:10157300AC02120844AFAC02120844B9AD0212081F
:1015830044D7AE021208446CAF0212084410B002F2
:1015930012084481B0021208443EB1021208449D6D
:1015A300B102120844E9B202120844B3B3021208AA
:1015B3004411B4021208448BB50212084442B60225
:1015C30012084468B7021208440DB802120844F125
:1015D300B80212084403C50212084476C502120871
:1015E30044D8C50212084422C60212084460C60247
:1015F300120844FDC602120844EBC7021208445FF6
:10160300C80212084495C8021208442EC9021208DF
:101613004498C902120844B2C902120844D1C9024B
:1016230012084479CA0212084437CB0212084457FD
:10163300CB0212084474CB0212084471CC02120884
:10164300445CCD021208441ECE0212084495CE0219
:10165300120844ADCE02120844919B03120844427F
:101663009C03120844FB9C03120844639D03120865
:101673004405A30312084419B5031208442AB50309
:10168300120844E9A703120844F7A70312084444C5
:10169300B503120844C5B103120844D5B1031208B7
:1016A30044F0B10312084460B20312084440AE038D
:1016B300120844C5AE031208442BAF03120844BFFB
:1016C300F502120844CDF50212084446F602120848
:1016D300441FF702120844B7F9021208441CFA0225
:1016E30012084467FA02120844F87F001208447390
:1016F300A40312084495A403120844BFA5031208C7
:101703004443A603120844CFF0021208443BF102FB
:10171300120844FBF102120844F5F202120844567F
:10172300F402120844B0F40212084403F50212084A
:10173300440CF5021208441EF5021208448DF5020A
:10174300120844A1F502120844ABF502120844D36F
:10175300E102120844E8E10212084427E2021208F7
:10176300445EE2021208449CE202120844B3E2021D
:10177300120844CCE202120844DEE2021208444595
:10178300E4021208440AE502120844F8E6021208C9
:101793004406E802120844F4E802120844EAE902A3
:1017A30012084444AF0312084466AF03120844C04E
:1017B300AF03120844D2AF0312084408B00312085F
:1017C3004446A603120844BFA60312084498A7037D
:1017D3001208447A8403120844AF8403120844DADB
:1017E30084031208441885031208444A8503120827
:1017F300447D85031208447D8603120844B886039A
:10180300120844988703120844E28703120844002D
:1018130080031208445580031208444F82031208C0
:1018230044818203120844A38203120844BC820346
:10183300120844D58203120844B1830312084447B3
:1018430084031208447BA9031208449FA9031208C6
:1018530044B8A903120844F7A9031208442AAA03A7
:101863001208445AAA0312084464AA03120844CC77
:10187300AA03120844CFAA03120844D9AA031208E0
:1018830044E6AA031208447B9603120844A3960372
:10189300120844E49603120844F69603120844110E
:1018A3009703120844799703120844859703120893
:1018B30044E49703120844089803120844C99803A0
:1018C300120844D69803120844E79803120844B157
:1018D300B403120844CEB403120844EE7A0012088B
:1018E300443A7C00120844407C00120844577C00B0
:1018F300120844787C001208448E7C00120844A22B
:101903007C00120844217D00120844867D001208E1
:10191300440E7E00120844877E00120844607F0054
:10192300120844707F001208447F7F001208447439
:10193300B20312084498B203120844C0B203120857
:1019430044E8B203120844ED9D03120844149E03B5
:10195300120844339E03120844A29E03120844153E
:1019630099031208442E9903120844459903120857
:10197300444E99031208446C990312084476990360
:10198300120844809903120844939903120844F6F9
:1019930099031208442F9A031208445D9A0312080C
:1019A30044AE9A03120844FA9A03120844159B039F
:1019B3001208441F9B03120844439B0312084486E6
:1019C3009B031208440DB30312084429B3031208FE
:1019D300448CB303120844DEFF021208444ECF02C4
:1019E3001208447ACF0212084498CF02120844AB7B
:1019F300CF02120844C6CF0212084421D0021208B3
:101A0300444FD0021208448CD402120844CED502AB
:101A130012084400D60212084463D602120844CFC7
:101A2300D702120844F7D7021208440CD80212084E
:101A3300441CD8021208445CD8021208449ED802FF
:101A4300120844AED802120844F0AA031208440054
:101A5300AB031208441EAB0312084439AB0312084C
:101A63004460AB0312084481AB031208449BAB03ED
:101A7300120844D3AB03120844F6AB031208442CF8
:101A8300FF0212084470FF021208445C8C03120820
:101A9300446C8C03120844888D03120844B88D03E8
:101AA300120844DE8D03120844068E0312084418FC
:101AB3008E03120844548E03120844BD8E03120889
:101AC30044F98E03120844408F031208446D8F03B8
:101AD3001208448E8F031208443BAD031208444D91
:101AE300AD031208443AAE031208443DAE03120894
:101AF3004428AC031208449AAC03120844D8AC033C
:101B030012084419AD03120844679303120844836F
:101B13009303120844D29303120844EE930312086A
:101B2300441F940312084444940312084429950360
:101B33001208443395031208444095031208444A9B
:101B430096031208445E960312084467960312082C
:101B5300447AFA02120844BDFE02120844C2FE028D
:101B6300120844B07F00120844EDB403120844A5E0
:101B73004900120844E84700120844B44700120819
:101B8300448147001208446547001208446E46002A
:101B93001208442646001208445B4400120844DB42
:101BA3004300120844C14300120844404300120892
:101BB30044004200120844624100120844304100CC
:101BC3001208446D4000120844983E00120844294C
:101BD3003E00120844FB3D00120844F83D00120881
:101BE30044E53D001208447D3D00120844643D0075
:101BF3001208442E3C00120844C65400120844182C
:101C03005200120844E850001208443C50001208E5
:101C1300448D4E00120844484C00120844CF4B0038
:101C2300120844F83B00120844BB3B001208445C12
:101C33003B00120844764B001208442B3B00120869
:101C430044E63700120844D73600120844663600CB
:101C53001208440A4B001208442B3600120844A20F
:101C63007100120844F63500120844EA35001208E0
:101C7300444A350012084491340012084464320087
:101C8300120844F02F00120844AE2F0012084479C2
:101C93002E001208442E2E00120844602D00120854
:101CA30044B72C00120844532C001208448D2C0016
:101CB300120844E14A001208447BA003000000809C
:101CC300FBE47300000000000000000000000000BF
:101CD300000000000038FCFC3800000000000D0D7F
:101CE300000000000E1E00001E0E00000000000099
:101CF30000000020F8F820F8F82000020F0F020F70
:101D03000F0200387C444747CC9800060C0838384B
:101D13000F070030300080C06030000C0603010064
:101D23000C0C0080D87CE4BCD84000070F080807DF
:101D33000F080000101E0E0000000000000000004D
:101D43000000000000F0F80C040000000003070C82
:101D53000800000000040CF8F000000000080C0765
:101D630003000080A0E0C0C0E0A0800002030101E6
:101D7300030200008080E0E0808000000000030395
:101D830000000000000000000000000000101E0E14
:101D930000000080808080808080000000000000C0
:101DA30000000000000000000000000000000C0C18
:101DB30000000000000080C06030000C060301003A
:101DC300000000F0F80CC40CF8F00003070C080C3A
:101DD300070300001018FCFC0000000008080F0FA8
:101DE300080800080C84C4643C18000E0F09080896
:101DF3000C0C00080C444444FCB800040C0808080C
:101E03000F0700C0E0B098FCFC8000000000080F42
:101E13000F08007C7C444444C48400040C08080874
:101E23000F0700F0F84C4444C08000070F0808086F
:101E33000F07000C0C0484C47C3C0000000F0F004F
:101E4300000000B8FC444444FCB800070F0808082D
:101E53000F0700387C444444FCF800000808080CD1
:101E630007030000000030300000000000000606F9
:101E730000000000000030300000000000080E06E3
:101E83000000000080C06030180800000001030655
:101E93000C08000020202020202000000101010167
:101EA3000101000008183060C0800000080C060320
:101EB300010000181C04C4E43C18000000000D0DD0
:101EC300000000F0F808C8C8F8F000070F080B0B73
:101ED3000B0100E0F0988C98F0E0000F0F00000079
:101EE3000F0F0004FCFC4444FCB800080F0F080863
:101EF3000F0700F0F80C04040C180003070C080883
:101F03000C060004FCFC040CF8F000080F0F080C8E
:101F130007030004FCFC44E40C1C00080F0F080832
:101F23000C0E0004FCFC44E40C1C00080F0F08001A
:101F3300000000F0F80C84848C980003070C080858
:101F4300070F00FCFC404040FCFC000F0F000000AA
:101F53000F0F00000004FCFC0400000000080F0F3A
:101F630008000000000004FCFC0400070F08080F31
:101F730007000004FCFCC0E03C1C00080F0F00013C
:101F83000F0E0004FCFC0400000000080F0F0808FB
:101F93000C0E00FCFC387038FCFC000F0F00000036
:101FA3000F0F00FCFC3870E0FCFC000F0F0000007A
:101FB3000F0F00F8FC040404FCF800070F080808DE
:101FC3000F070004FCFC44447C3800080F0F080092
:101FD300000000F8FC040404FCF800070F080E3CA2
:101FE3003F270004FCFC44C4FC3800080F0F00002A
:101FF3000F0F00183C6444C49C1800060E08080820
:102003000F0700001C0CFCFC0C1C000000080F0F49
:10201300080000FCFC000000FCFC00070F08080897
:102023000F0700FCFC000000FCFC000103060C068B
:10203300030100FCFC00C000FCFC00070F0E030EB4
:102043000F07000C3CF0E0F03C0C000C0F03010305
:102053000F0C00003C7CC0C07C3C000000080F0F4C
:102063000800001C0C84C4643C1C000E0F09080803
:102073000C0E000000FCFC0404000000000F0F081D
:102083000800003870E0C080000000000000010379
:10209300070E0000000404FCFC0000000008080F09
:1020A3000F0000080C0603060C08000000000000E7
:1020B300000000000000000000000020202020207D
:1020C300202020000003070400000000000000009F
:1020D30000000000A0A0A0E0C00000070F08080750
:1020E3000F080004FCFC2060C08000000F0F0808EC
:1020F3000F0700C0E0202020604000070F080808F9
:102103000C040080C06024FCFC0000070F080807D3
:102113000F0800C0E0A0A0A0E0C000070F08080857
:102123000C040040F8FC440C180000080F0F0800D2
:10213300000000C0E02020C0E02000276F48487F57
:102143003F000004FCFC4020E0C000080F0F00002B
:102153000F0F00000020ECEC0000000000080F0F40
:102163000800000000000020ECEC0000307040404C
:102173007F3F0004FCFC80C0602000080F0F0103B8
:102183000E0C00000004FCFC0000000000080F0F10
:10219300080000E0E060C060E0C0000F0F0007002F
:1021A3000F0F0020E0C02020E0C000000F0F000050
:1021B3000F0F00C0E0202020E0C000070F08080830
:1021C3000F070020E0C02020E0C000407F7F4808C8
:1021D3000F0700C0E02020C0E02000070F08487F61
:1021E3007F400020E0C06020E0C000080F0F08001F
:1021F30000000040E0A02020604000040C09090B0F
:102203000E04002020F8FC202000000000070F0827
:102213000C0400E0E00000E0E00000070F080807FE
:102223000F080000E0E00000E0E0000003070C0CF2
:10223300070300E0E0008000E0E000070F0C070C5C
:102243000F07002060C080C0602000080C07030750
:102253000C0800E0E0000000E0E000474F48486859
:102263003F1F00606020A0E06020000C0E0B0908F7
:102273000C0C00004040F8BC040400000000070FF1
:10228300080800000000BCBC0000000000000F0FA5
:10229300000000000404BCF84040000008080F07D9
:1022A300000000080C040C080C04000000000000EF
:1022B300000000000000000000000000000000001B
:1022C300000000000000000000000000004F0000BC
:1022D3000000000007000700000000147F147F14B3
:1022E300000000242A7F2A120000002313086462DE
:1022F3000000003649552250000000000507000089
:10230300000000001C2241000000000041221C00CC
:1023130000000014083E081400000008083E0808E6
:102323000000000050300000000000080808080802
:10233300000000006060000000000020100804029C
:102343000000003E5149453E00000000427F40002E
:1023530000000042615149460000002141454B31D4
:102363000000001814127F1000000027454545396E
:102373000000003C4A49493000000001710905038F
:102383000000003649494936000000064949291E24
:102393000000000036360000000000005636000042
:1023A3000000000814224100000000141414141447
:1023B3000000000041221408000000020151090638
:1023C300000000324979413E0000007E1111117E68
:1023D3000000007F494949360000003E4141412247
:1023E3000000007F4141221C0000007F4949494110
:1023F3000000007F090909010000003E4149497AB4
:102403000000007F0808087F00000000417F4100B2
:102413000000002040413F010000007F08142241DA
:102423000000007F404040400000007F020C027F1C
:102433000000007F0408107F0000003E4141413E40
:102443000000007F090909060000003E4151215E9A
:102453000000007F09192946000000464949493117
:1024630000000001017F01010000003F4040403FA8
:102473000000001F2040201F0000003F4038403F65
:1024830000000063140814630000000708700807C5
:102493000000006151494543000000007F414100B5
:1024A30000000002040810200000000041417F00EA
:1024B30000000004020102040000004040404040CC
:1024C300000000010204000000000020545454786E
:1024D3000000007F4848483000000038444444442A
:1024E300000000304848487F0000003854545458D6
:1024F30000000000087E0902000000485454543CC8
:102503000000007F0808087000000000007A000047
:102513000000002040403D000000007F10284400E0
:1025230000000000417F40000000007C0438047C70
:102533000000007C08040478000000384444443858
:102543000000007C14141408000000081414147C08
:102553000000007C0804040800000048545454247C
:1025630000000004043F44240000003C4040403C81
:102573000000001C2040201C0000003C4030403C78
:1025830000000044281028440000000448300804D8
:102593000000004464544C440000000836414100EC
:1025A30000000000007700000000000041413608F1
:1025B300000000040202020100000000000000000D
:1025C300000000000000000000000000065F5F063E
:1025D3000000000007070007070000147F7F147F37
:1025E3007F1400242E6B6B3A120000466630180CE1
:1025F300666200307A4F5D377A48000407030000B3
:10260300000000001C3E63410000000041633E1CCB
:10261300000000082A3E1C1C3E2A0008083E3E0813
:102623000800000080E060000000000808080808B7
:1026330008000000006060000000006030180C0615
:102643000301003E7F71594D7F3E0040427F7F4032
:10265300400000627359496F660000226349497F55
:10266300360000181C16537F7F5000276745457DB1
:102673003900003C7E4B4979300000030371790F28
:10268300070000367F49497F360000064F49693FFE
:102693001E000000006666000000000080E6660081
:1026A300000000081C366341000000242424242475
:1026B300240000004163361C080000020351590F37
:1026C3000600003E7F415D5D1F1E007C7E13137E6E
:1026D3007C0000417F7F49497F36001C3E634141B6
:1026E300632200417F7F41633E1C00417F7F495D40
:1026F300416300417F7F491D0103001C3E6341513B
:102703007372007F7F08087F7F000000417F7F4155
:10271300000000307040417F3F0100417F7F081C73
:10272300776300417F7F41406070007F7F0E1C0E06
:102733007F7F007F7F060C187F7F001C3E63416311
:102743003E1C00417F7F49090F06001E3F21717F18
:102753005E0000417F7F09197F6600266F4D597324
:1027630032000003417F7F410300007F7F40407FB1
:102773007F00001F3F60603F1F00007F7F301830E5
:102783007F7F0043673C183C674300074F78784FCF
:10279300070000476371594D677300007F7F414114
:1027A3000000000103060C183060000041417F7FE8
:1027B300000000080C0603060C080080808080805F
:1027C3008080000000030704000000207454543C80
:1027D300784000417F3F4848783000387C44446C5F
:1027E300280000307848493F7F4000387C54545CCF
:1027F300180000487E7F490302000098BCA4A4F897
:102803007C0400417F7F08047C780000447D7D4088
:1028130000000060E08080FD7D0000417F7F103874
:102823006C440000417F7F400000007C7C18381C12
:102833007C78007C7C04047C780000387C44447CF5
:1028430038000084FCF8A4243C1800183C24A4F8A5
:10285300FC8400447C784C041C1800485C54547479
:1028630024000000043E7F442400003C7C40403CA4
:102873007C40001C3C60603C1C00003C7C70387059
:102883007C3C00446C3810386C44009CBCA0A0FC19
:102893007C00004C64745C4C64000008083E774183
:1028A30041000000000077770000004141773E08B7
:1028B30008000002030103020301000000000000FE
:1028C300000000000136360101000102010001038E
:1028D3000100010401060605020000070100340897
:1028E30001000F090401010D0100FF0E080000178C
:1028F300020000190100FF1A0100011B0100FE1C68
:102903000100081D0200001F010001200100012138
:102913000200002301000F2402000026010001270A
:10292300010008280200FF2A0100072B0102402CA6
:102933000100002D0100012E0100012F0100FF30D5
:10294300010B1C310800003A0100083B01000F2F66
:1029530001000003027102300160021102700201E2
:1029630002020202028002100261023A0041006385
:102973000273027202620243020002130238000071
:10298300020002040212020002000200020002041A
:10299300020402370037003C0244020002390000FF
:1029A3000200026502000235028102000205028272
:1029B3000283020002010371030103010301030106
:1029C30003010322030203010310030003000300B6
:1029D3000300030003000300034203000324030670
:1029E3000300030003040312032503230325032326
:1029F3000304030403000300030003440300030070
:102A0300032303000365032100350381030003054A
:102A1300030003000300030101710101010101111E
:102A23000101013101010101018001100161013B3B
:102A33000014006301730172016201430100011379
:102A43000106013D013500040112010001000100EE
:102A530001000104010401330133013C014401324B
:102A6300013600000100016501000135008101000C
:102A7300010501820183010001030071003001603F
:102A83000011007000310220035004800010006127
:102A93000000001400630073007200620043000032
:102AA30000130006000000000004001200000000F4
:102AB300000000000004000400370037003C02441B
:102AC30000000000000000000065000000350081E8
:102AD300000000050000008300000036000100062E
:102AE3000000000F000000000000000000000000D4
:102AF3000003FFFF00000403FFFF0000FFFF0FF4CC
:102B0300010005C4040320000100130B00000000B2
:102B13000000000003010FD50F0510DB0FE10FFFCD
:102B23000FF30FED0F0B10111017102310E70FCF3A
:102B33000FC90F01009F1502003F1503004515043F
:102B4300004B150500511506005D15FFFF00000A37
:102B5300650D022F0D05410D07350D0C110D0D23CC
:102B63000DFF000000160F00000B150B02000222E0
:102B73000F320000060000000000000000896745D6
:102B83002301EFCDAB5A6967426565416C6C69619E
:102B93006E63653039080203080A06020D030B0C45
:102BA3000F0205060FC510D710DD109F0FE3109914
:102BB3000FA50F140AE5D5C5B5A5A595858575653A
:102BC30031114F115511371143113D1100011916E0
:102BD3001816161523030000034948424D181725FC
:102BE30005020C0E020B040B0A0708000F30301706
:102BF300181921301B1D1F30303016181920231AC5
:102C03001C1E3000383C3E363B3B352B432CF90F22
:102C13001D10491129102F101911E910EF10FB1085
:102C2300F510020402010101010902000000000085
:102C33000000BE040A0E00E803FA0615002800B6D9
:102C43002B04000C030908FF1E1E04040F0A0C05C5
:102C530074F71203C4E9FE1211F1EE901101F09022
:102C6300030C7495F0A3741CF090030E748FF0A3FF
:102C7300741CF09003107489F0A3741CF090031279
:102C83007483F0A3741CF00241B574F71203C4E912
:102C9300FE900302E4F0EE900301F07CFF7D057AE1
:102CA300037B03121B03901152E090030BF0121CE1
:102CB300590241B574F41203C48A088B09EB54809A
:102CC300605B900301125826604A8E828F83E06412
:102CD30001703212493C1206B8EE241212663EF518
:102CE3000A780A120865122D53120861EE240B129A
:102CF3002FA71206BCEE24171258361211AF74090F
:102D030012088F8008E064027003121B9FEEFAEF33
:102D1300FB1212B7AA08E5096480FB8030EA54026B
:102D2300600C9011007401F0EA6402FA801FEA5407
:102D3300046005EA640480F3EA5408600C121C4D35
:102D4300E5086408FAAB0980047A007B00022E29A7
:102D5300EE240FF50AEF3400F50B780A2274F4120F
:102D630003C48A088B098A828B83A3A3A3E024105C
:102D73001241C1FA124A6D7003022E0F8E828F83A5
:102D83007402F0A3E4124A5BA3A3A3A3E8F0A3E9AC
:102D93001246DEA3A3A3A3A3A3A3F0E5082403F889
:102DA300E509123D8224101240288E828F83A3A34B
:102DB300A3A3F0EE2409FA122E111242FDF5838823
:102DC30082E0A2E58E828F83A3A3A3A3A3500474FE
:102DD300018001E4F0E5082403F88882898312580E
:102DE3005EEA125E39EB122FAA122E1C12085D1234
:102DF3005E6EEB1243AB8E828F83A3A312494912FB
:102E0300088FEEFAEFFB900301124ABF8018EF34EC
:102E130000FB8E828F83A3A322E0F508A3E0F509CC
:102E2300750A007808227F0402063374F21203C481
:102E33008A088B09ECFAEDFB740E120AE8E0FC1227
:102E430012218A0C8B0DAE0CAF0DEE4F6023AC0834
:102E5300AD0912120FE96019AC08AD09EEFAEFFBE8
:102E6300121215E97007EEFAEFFB121209790080CE
:102E73000279B4023BF374EE1203C474F712090D22
:102E83008A0A8B0BECFEEDFF750FB3750E00750C04
:102E930000750D00800CE50C2401F50CE50D3400E4
:102EA300F50D902C44E493F8740193F9C3E50C9861
:102EB300E50D994003022F98AA0CAB0D12126F8AED
:102EC300088B09EA450960CE8A828B83A3A3A3A357
:102ED300A3E0250EF50EF510C3E50A9510E50B9456
:102EE3000050B37C157D007900EEFAEFFB124740EA
:102EF300A3A3A3A3E50AC3950EF8E028C333F8E41C
:102F030033F9E50828F582E50939F583A3A3A3A3DB
:102F1300A3A3124E7DA31241EEEAFCEBFDEEFAEF02
:102F2300123DD6A3E06401700A12493C7401123CBD
:102F3300E58043851882851983AC82AD8385088239
:102F430085098312585C121257E9602D7408120A1E
:102F5300E8E0C0E012493CD0E0F07408120AE8E06F
:102F63006403851882851983700CAC82AD83EE24CB
:102F73000B123CD280031243918508828509831288
:102F83003D71A3A3124A25C0E0EE2414122FA7D04B
:102F9300E0F0750F00A90F740912088F7F0A02066B
:102FA30033EE240CF582EF12498D2274F71203C419
:102FB300E9FE8A828B83A3A3A3A3A3A3E05408609F
:102FC300298A828B83A3A3A3A3A3A3E0540260173C
:102FD3008A828B83A3A3A3A3A3A3A3A3A3E06406CF
:102FE300600574E96E7003121C770241B574E81230
:102FF30003C474F712090D7407120AE8124752E961
:10300300851882851983F0ECFEEDFF7424120AE81B
:10301300780C120A917513008E828F831258588E82
:10302300828F83A3A3A3E0F912122D8A148B15EACE
:103033004515700302320AEE2410125017A9141218
:103043000C638A168B17EA4517700302320AEE24C3
:1030530006F510EF3400F5117C00851082F583121C
:1030630032508E828F83A3A3A3E0851682851783B4
:10307300A3A3A3125490F8A3E0F9851682851783BE
:10308300A3A3A3A3E8F0A3E91237E185168285176A
:1030930083A3A3A3A3A3A3A31250378516828517E3
:1030A30083A3A3A3A3A3A3F0EE125E39EF12346AA2
:1030B30012085DEE125E6FEF1243AB851682851721
:1030C30083A3A3A3A3A3A3A3A3A312494912088F72
:1030D30075100002318A850A82850B8312585C12AF
:1030E300125D850882850983A3EAF0A3EB12496286
:1030F300A3A3124715124AD6E0A2E6500F85088211
:10310300850983A3A3A3A3A3E0D2E1F0E51370632E
:10311300850882850983A312547A90035AE0687064
:1031230003A3E069704D850882850983A3A3A312D5
:103133005023780C1208597427120AE8E0F50A782C
:103143000A1208657426120AE81206BC9003671275
:1031530006BC79007410120AE81246C9121B757472
:103163000912088F850882850983A3A3A3A3A3E07B
:103173004405F074012510FC8E828F83A3A3A3A3BF
:10318300A3A31232500510E50A450B6052851008BF
:10319300C3E5089514E495155045E51075F006A4AC
:1031A300F8A9F0E51628F8E51739F9E8240CF5082D
:1031B300E9123D49E4124958640160030230D975AC
:1031C3001301850882850983740112495DF8A3E020
:1031D300F9850882850983A3E8F0A3E90230F0AA00
:1031E30016AB17120C6978161208617425120AE8D7
:1031F300E0FC7402120AE8E0F9EEFAEFFB121C7D20
:10320300740212088F80418E828F83A3A3A3E0C030
:10321300E07404120AE8D0E01237E1C0E07405124A
:103223000AE8D0E0F0E514451570097406120AE8BF
:1032330074B980077406120AE87410F07401120A54
:10324300E8AA82AB83121B7B7409025E7A1249528D
:103253008E828F83A3A3A3E0F91212338A0A8B0B06
:103263002274EA1203C474F312090D8A0A8B0B89C0
:10327300158C147423120AE81265F3AA0CFB120CC2
:1032830057E9F513AA0CAB0D120C5DE5137003029D
:103293003457750E00800F8E828F83A3A3A3A3A33D
:1032A300E0D2E3F0050EE50C240BF582E50D1235B3
:1032B300E5E50EC398400302344EE5137003023470
:1032C3004EE50E75F006A4F8A9F0E50C28F8E50D17
:1032D30039F9E8240CFEE91263D6A3A3A3A3E0A261
:1032E300E040C1750F00750808750900E514600317
:1032F300750F201246FDE060339003AAE06401706D
:1033030017E50FD2E3F50F7509108E828F831243F1
:103313002F1241E274FF8024430F0C75080C8E8238
:103323008F83A3123476125E5BA38010E5156009C8
:10333300E50FD2E6F50F75080A123484F074021211
:103343000AE8E50F1254AFC0E07404120AE8D0E0B3
:10335300F07405120AE81241D3120AE8E06003028E
:1033630034317408120AE8123D5A8E828F83A3A364
:10337300A3A3F07408120AE8123B07F583E508F0EB
:10338300A3E509124607E060119003AAE0C0E074C8
:1033930008120AE8123B00D0E0F0850C82850D8309
:1033A300A3A3A3E0C0E07408120AE8125C7ED0E095
:1033B300125CB6C0E07408120AE8123B12D0E0F0C7
:1033C3007408120AE8123476A3A3125C8512549986
:1033D300A3A3E0125C69EAF0A3EB1254A5C0E0E8F2
:1033E300242EF582E9122FAAD0E0F07408120AE81D
:1033F30012585E850A82850B831234612424F58278
:10340300EB12439A125E37E50B12346A12085D120F
:1034130043A8EA242BF582EB122FAA12494912087A
:103423008F851882851983AA82AB83121B938E82A0
:103433008F83A3A3A3A3A3E0D2E0F0740C120AE842
:10344300E0600302329A15130232A77900AA0CAB8B
:103453000D121C71740D12088F7F0E020633A3A385
:10346300A3A312547EEA2212498D125459751200F5
:1034730078102212547E850A82850B83A3A3A3A30B
:1034830022A3123489221246A2E8F0A3E92274F29D
:103493001203C474EB12090DEAFEEBFF89088E8256
:1034A3008F83A3A3A3A3A3A3A3A3E0F9120C818AED
:1034B3000A8B0BEA450B607FE50870047C048002ED
:1034C3007C088E828F83A3A3A3A3A3A3A3A3E0F962
:1034D300120C87122FA412477C605C8882898312A6
:1034E300585A7406120AE812353F12585E740812CD
:1034F3000AE812353FA3A3E0C0E07410120AE8D033
:10350300E01254BF12585E740E120AE81247527446
:1035130011120AE8E41251FAF9780A1208617420C8
:1035230059FC744059F97402120AE8AA82AB831257
:103533001C7D740212088F7415023BF0EAF0A3EBB2
:103543001241ABA3A3A32274F71203C474FA1209A2
:103553000DE9FE7F018F087D0080047508000D12C0
:1035630041BA1235E5EDC3985025ED75F006A4F880
:10357300A9F0EA28F8EB39F9E8125E32E9124E664F
:1035830050D9540C60D5E0A2E250D37F0080CF8A9B
:10359300828B83A3A3A3A3A3A3E0703EE508A2E0C9
:1035A300400574016E70338A828B83A3A3A3A3A304
:1035B300A37401125B2DE0C0E07403120AE8D0E0AB
:1035C300125B25E0C0E07404120AE8D0E0F0740551
:1035D300120AE8EF12435F121B7B74060241B2F535
:1035E30082EF12520AF822C082C0837901121C7141
:1035F300023CBAC082C083EA4B60189003A6E06421
:10360300027010901100E4F0EAFCEBFD7A02123C28
:10361300C780129011007401F07A027B00900301BD
:10362300E0F91213F5023CBAC082C0839011CCE0DA
:1036330075F005A4FCADF079007A9D7B1012129F02
:103643007B008012EB75F005A4F8A9F01237D6744D
:10365300FEF0A304F00B9011CCE0F8EBC39840E428
:10366300023CBAC082C0837C007B0080037C010BD8
:103673009011CCE0F8EBC398504FEB75F005A4F82C
:10368300AAF0EAF91237CF7003A3E0F460E112372E
:10369300C6E82403080808E9123D8224FFF0A3E0EA
:1036A30034FF1251FAF8A3E0F9E84970C0EB75F062
:1036B30005A4F8EAF91237C68882898374FEF0A359
:1036C30004125B3EA3E4F080A6ECA2E05003123C9C
:1036D300C1023CBA74F61203C4EAFEEBFF9011CCAC
:1036E300E070030237C1EE241112663E7003023705
:1036F300C18E828F83A3A3A3A3A3A3A3A3A31246D1
:10370300D16402600F8E828F83A3A3A3A3A3E0706F
:10371300030237C17C0080010C9011CCE0F8ECC3AC
:10372300985045EE240B122FA712547AEC75F0052E
:10373300A4FAABF0749D2AF58274103BF583E0681C
:103743007003A3E06970D1EE241212663EFBEC75A0
:10375300F005A4F8A9F0749F28F582741039F58355
:10376300E06B70B4790080587C0080010C9011CC20
:10377300E0F8ECC39850EDEC75F005A4F8A9F0124D
:1037830037CF7003A3E0F470E31237C6EE240B12B5
:103793002FA71245DAEAF0A3EB1237E18882898377
:1037A300A31241A6740C1250377A08FB900301E070
:1037B300F91213FB8B09EA45097003123CC1790125
:1037C300023CFE749D28F8741039F9221237D6E0B2
:1037D30064FE22749D28F582741039F58322123D0C
:1037E30035E02274F21203C474F312090DEAFEEBFE
:1037F300FF8E828F83A3A3A3A3A3A3A3A3A3A3E067
:10380300F50A901100E0700579BA023AFB750801D8
:10381300750900750C00750D007C087D0079008525
:103823001882851983AA82AB8312129F7405120A28
:10383300E87401123B23540460127402120AE8E094
:10384300D2E6123B2354087003750803E05410605A
:103853000674404508F508E0540860227402120A11
:10386300E8E044C0123B235420600A7403120AE8C0
:10387300E0D2E080087403120AE8E0D2E1F08E821D
:103883008F83A3A3A3A3A3A3A3A3E07018120E0182
:103893008518828519831247527402120AE8E0D20E
:1038A300E2F002394D640F70157402120AE8E0D297
:1038B300E3124AD712473A4508F50802394D8E827A
:1038C3008F83A3A3A3A3A3A3A3A3E064028E828FE6
:1038D30083700512348580C9A3A3A3A3A3A3A3A3C1
:1038E300E064037013851882851983AC82AD83EE7F
:1038F300FAEFFB121C2380528E828F83A3A3A3A310
:10390300A3A3A3A3E0640170419003AAE0601C7425
:1039130002120AE8E0D2E3124AC5851882851983A8
:1039230012439D750910750AFF80187402120AE884
:10393300E0440C125CA374FDF0A374FFF07404451F
:1039430008F5088E828F831265F3124E60503A7425
:1039530002120AE8E0540C701B8E828F8312585EA9
:1039630012162FE9700579BB023AFB7402120AE8BA
:10397300E0D2E5F0124E6050107402120AE8E054EF
:103983000C64047004E0D2E5F0EE241112663EC02C
:10399300E07404120AE8D0E01241D5120AE8E060AC
:1039A30003023AF47408120AE8123B07123B19EEB9
:1039B300241812663EC0E0E8125E23E9122FAAD053
:1039C300E0F0EE241912663EC0E07408120AE8E043
:1039D3002413123D52D0E01241FB64017011900395
:1039E300AAE0C0E07408120AE8123B00D0E0F074C9
:1039F30008120AE81240002417FAEF12402FFCE8DD
:103A0300241CF582E9122FAAEC1250378E828F8381
:103A1300A3A3A3A3A3A3A3A3A3E0C0E0E82422F545
:103A230082E9122FAAD0E0F07408120AE8123B12BE
:103A3300E50AF07408120AE81240052424F582E925
:103A4300125749A3E50D1257A2FCA3E0FDE8242673
:103A5300F582E9122FAAECF0A3ED123D11124727CC
:103A6300E82428F582E9122FAA1258F3C0E0E824CB
:103A73002FF582E9122FAAD0E0F0EE241B12663E46
:103A8300C0E07408120AE8125C77D0E0F0EE241A62
:103A930012663EC0E07408120AE8E0242E123D527A
:103AA300D0E0125C9B122E1D12085DEE2411122F22
:103AB300A7124727740B120AE812494312088FEE24
:103AC300241512663E5440601B90032412477C6009
:103AD30013851882851983AA82AB83900325123D2F
:103AE3009A121CC4851882851983AA82AB83121B80
:103AF30093740C120AE8E0F9740D023BF0E024150C
:103B0300123D5622124009240FF582E9340022E0C7
:103B13002423123D5622F583E508F0A3E509F0229C
:103B2300F0EE24151252072274F71203C47E638A3F
:103B3300828B83E0600C7905120B61E9F87456C33C
:103B430098FE900352E0600CF9120B61E9F8EEC3A2
:103B53009824F2FEEEF90241B574F61203C474FE22
:103B630012090D851882851983124752E9FEECFA72
:103B7300EDFB740C120AE8E0FC90046112477C60D0
:103B8300328518828519838582088583097808120E
:103B930008617D01EEF9900461123D97121CC47413
:103BA3000212088F8B09EA450960047900800679BF
:103BB300B2800279B6023CF974F71203C4E9FE74C9
:103BC30009120AE8E0FF90030C12477C601AEFF534
:103BD300087808120865EEF990030C123D97121C41
:103BE300C4740112088F800279B60241B512088F9E
:103BF3007F0602063374F51203C4EAFEEBFF8C085A
:103C03008D09750A011260B1123CDB700B90035AE7
:103C1300123DCC12439D800EAC08AD09EEFAEFFBCA
:103C2300120B9DE9F50AA90A02591474F61203C48A
:103C3300EAFEEBFF7A0C7B00121335EA4B606BEE66
:103C4300242012663E8A828B83F0EE2421123CB03C
:103C5300F0EE2422123CB0A3F0EE2423123CB0A3D6
:103C6300A3124982125482E8F0A3E91251FF1254BD
:103C730083A3A3E8F0A3E91250298A828B83A3A329
:103C8300A3A3A3A3A3A3F0EE242F12663EC0E012C6
:103C930041BA122FAAD0E01247588A828B83A3A37A
:103CA300A3A3A3A3A3A3A312439D023CFE12520703
:103CB3008A828B83A322F0D083D0820208417CF4D2
:103CC3007D017A087B00900301E0F91213E922FADF
:103CD300EF3400FB121B03221241E722123CE5A33F
:103CE300E022123CE922123CED22124A53A3A32202
:103CF3001246ECA3E022740212088F7F02020633FD
:103D03007C017D007A007B00120EF1740422F01214
:103D13003D1912498D22EE240FF582EF22F582EF31
:103D230012498DE422900544E0F91212E722123D74
:103D33003522F0EE2412F582EF3400F583221208C7
:103D43008F7F08020633125E56850882F58322129E
:103D53003D5622123DB322123DACE022124A53E0FB
:103D630022C082C0831247AE123D23023CB91246E1
:103D7300E522A3E0F9120B61E9227901020841125D
:103D8300432A22F8EF3400F98808890922EEFAEF72
:103D9300FB90031CE0F8A3123DA622E0F8123DA518
:103DA300A322A3E0F583888222E0240E123DB322EE
:103DB300123DB722F8A3E0123DBE223400F98882F7
:103DC30089832212445664052212547E8508828513
:103DD300098322FB123DDB22121B0385088285091E
:103DE3008322C082C0831247AE123DF2023CB91255
:103DF300498D740122023D7DC082C08390031A74F1
:103E0300EDF0A3741BF090031C74E1F0A3741BF09A
:103E130090031E74DBF0A3741BF090032074E7F08F
:103E2300A3741B023CB974F41203C4EAFEEBFF1241
:103E33003E8EF508120E018A0A8B0BA80AA90B8E77
:103E4300828F83123E81E0687003A3E069602CE5F2
:103E530008A2E550268E828F83A3E0FB90031A12FB
:103E63003D97121CC48E828F83E0F8A3124C35A3B6
:103E730012477C7006123E8EC2E5F0022E29123ED6
:103E83008522E0FAA3E0F5838A82228E828F831251
:103E93003D9EA3E02274F51203C4123FEE124005C7
:103EA3002420F582E9126641FE74035EF50A124589
:103EB300C4122FAA12400088828983F0A3A882A982
:103EC30083E50A60097402650A6003023F5F740CAC
:103ED3005EFF601574086F601074046F701D7402C8
:103EE300650A7005EEA2E4402D8A828B83A3A3A307
:103EF300A3A3A3A3A3E02423124050740C6F701058
:103F0300123FE924241240382424123FFB12405369
:103F13007402650A7005EEA2E44041123FE92426CB
:103F2300124038242612400EA312406212400E1291
:103F33004062123FFB124053EF600F74086F600A38
:103F4300740C6F600574046F70128A828B83A3A351
:103F5300A3A3A3A3A3A3E024221240508A828B83AA
:103F6300A3A3A3A3A3A3A3A312401E7005EEA2E1E0
:103F730050178A828B83A3A3A3A3A3A3A3A3E024A1
:103F83002E1245CB124049800E90030212404990F5
:103F93000302E00412430DA3A882A983EEA2E75013
:103FA30042123FE9242112400E1240538C828D832A
:103FB30012401E602E8A828B83A3A3A3A3A3A3A371
:103FC300A3E02430124050EEA2E150178A828B8383
:103FD300A3A3A3A3A3A3A3A3E0243112402888820D
:103FE3008983F0025914123FEEE022EA2408FCEB25
:103FF3003400FD8C828D83221245CFA32212547E7E
:10400300EE2212400922124AD0E82212401222F56F
:1040130008A3E03400850882F58322E024211245B9
:10402300CFE0540322FAA3E012402F223400FB8A8C
:10403300828B83E022124012124049A3A882A983F3
:104043008C828D83E022E088828983F0221245CF1F
:1040530012405722E088828983F0A308A9832212A1
:1040630040578C828D83E0242822C082C0838A82B9
:104073008B83123E92F8740358F98A828B83A3A32D
:104083007401F0E960057402697061740C58FC6096
:104093001474086C600F74046C70137402697005F7
:1040A300E8A2E4401D8A828B83A3A37402F0740CFC
:1040B3006C700A8A828B83A3A3E02402F0740269E2
:1040C3007005E8A2E440258A828B83A3A3E024043D
:1040D300F0EC600F74086C600A740C6C6005740477
:1040E3006C70098A828B83A3A3E004F0E8A2E750F3
:1040F300318A828B83A3A3E0041258F7F9A3E0F576
:10410300838982A3A3A3E0540360178A828B83A3CA
:10411300A3E004F0E8A2E150098A828B83A3A3E021
:1041230004F08A828B83A3A3E004023CB9C082C05B
:10413300838A828B83A3A3A3A3A3A3A3A3A3A3126F
:10414300477C60098A828B83A3A3124153023CBA42
:10415300A3A3A3A3A3A3A3A312495212133B2274A1
:10416300F71203C4EAFEEBFF12547688828983A315
:10417300A3A3A3A3A3A3A3E4F01241A6A3A3A3A36E
:10418300A3A3A3F0A3F0E8125733E91241A0121B33
:10419300C3EEFAEFFB121BCF8018F582ED12498DA7
:1041A300E4F022A31241AB2212430DA3A3A32212D4
:1041B300088F7F01020633EA240BF582EB22125D9E
:1041C300E724092212498D1265F7750E00780C2237
:1041D30074011243631241DC22121B99740C2212E4
:1041E30046BFA322121AFDE9640122A3A3A3A3E8F5
:1041F300F0A3E9F0120DFB22124601E02274F6123D
:1042030003C474F412090D124313FCA3E0F5838C69
:1042130082A3E0FC7402120AE8EC1251FA2402129F
:1042230046B37404120AE812439DEC600A74021246
:104233000AE8E06404701C1242F1124E6C74061218
:104243000AE81242F71246B37408120AE8E8F0A328
:10425300E98056E06401600AE064066005E06405F5
:1042630070231242F1124028C0E07403120AE8D00E
:10427300E01251FA2413124E6C7406120AE812511A
:10428300F6241B80C07406120AE8E4F0A31243204C
:104293002412124E6C7408120AE81242F7125DE3FC
:1042A300C0E0740A120AE8D0E0F07406120AE812B9
:1042B300477C60287406120AE812585E120B91E9D3
:1042C30064017018120DFB8A088B09AC08AD0974E0
:1042D30006120AE812585E123CDB700D85188285BF
:1042E3001983AA82AB83121B6F740C023CFB12432B
:1042F30025241222124304241A22124304F8A3E0B1
:1043030022EAF0A3EB12430DE022F0888289832294
:104313008A828B83A3A3A3A3A3A3123489F012439A
:104323002522EA2402F8EB123DBEE022A312547EBA
:104333008518828519832212088F023CBAC082C075
:104343008374FD12090D12436FC0E07402120AE870
:10435300D0E012435F12132F740380DB12436322F6
:10436300F0851882851983AA82AB83228A828B8384
:10437300A3A3A3A3A3A31246998A828B83A3A31205
:104383003D9EE022AA82AB8312129374032212543D
:104393007EEE240BF582EF12498D12469C221246C3
:1043A3009C90032C221254B712498DE0FC7D00220D
:1043B3008A828B83A3A3E0F812445624FB22C08293
:1043C300C0831243B3600624FC60078008121BB14C
:1043D3008003121BAB023CBAC082C0838A828B83E8
:1043E300A3A3A3A3A3A3A3A3E070528A828B83A353
:1043F300A3E0F81244526401604312444C64026027
:104403003C12444C6403603512444C6404602E8AAD
:10441300828B83A3A3123DC6602312444C640A60BB
:104423001C12444C640B601512444C640C600E1255
:10443300444C640D60077904121AEB80099003223F
:10444300123D97121CC4023CBA8A828B83A3A31227
:10445300445622123DA5E02274F61203C474FA12E4
:10446300090DEAFEEBFF7403120AE8EEF0A3EFF086
:104473007403120AE8AA82AB83121BB712663B606D
:10448300030245BF8518828519837432F0740512BF
:104493000AE8C082C0838E828F83A3A3A3A3E0D044
:1044A30083D082F8E028C0E07401120AE8D0E01259
:1044B300461BC0E07402120AE8D0E01245FAF8A3E2
:1044C300E0F9E8496026E82417F582E9122FAAC02B
:1044D30082C083E82416F582E9126641D083D08234
:1044E300F8E028F87401120AE8E028F085188285BC
:1044F3001983AA82AB83120BEB8A088B09A808A93C
:1045030009E84970030245B28E828F831245DAA30C
:10451300A3EAF0A3EB124607A3A3E0C0E0E824203C
:10452300F582E9122FAAD0E0125CB6C0E0E824219C
:10453300F582E9122FAAD0E0124616C0E0E8242A39
:10454300F582E9122FAAD0E0F07405120AE8E0FA26
:104553001245C41266412A124E6CE8242BF582E9F7
:10456300122FAA1247527405120AE8E0C0E0E824A9
:104573002DF582E9122FAAD0E01245FAFAA3E0FB47
:10458300EA4B6019E8242BFAE9122E12A3A3A3A382
:10459300A3A3A3A3E024161245CB1245E28E828F78
:1045A30083A3A3A3A3A3A3A3A3E8F0A3E9800CEE8F
:1045B300FAEFFB121BBD122FA47410F07406023C19
:1045C300FBE8240BF582E9221245CF22FCA3E03459
:1045D30000FD8C828D83221249528882898322E0D6
:1045E300FC8A828B83E02CFCA3E03400FD8A828B5F
:1045F30083ECF0A3EDF022124601A3A3E022124BB9
:104603006FA3A322F0E8125E23E912498D7401120D
:104613004AD722124621E022124621A3E022125950
:1046230002A32274F71203C4EAFEEBFF12663B7087
:104633001E12465C12477C6006123D90121CC41287
:10464300663B700B125852120BE5122FA4E9F0EEE1
:10465300FAEFFB121BBD0241B5121BC98E828F8379
:10466300A3A3A3A3A3A3A3A3A3A32274F61203C484
:10467300EAFEEBFF8C088D0912162FE9700479010D
:104683008011AC08AD09EEFAEFFB900320123D97C1
:10469300121CC4023CFE1246A2E8F0A3E9F022E099
:1046A300F8A3E0F985188285198322125CA7E0221A
:1046B300F8A3E03400F9221246BFE022E8F0A3E9B0
:1046C300124ADBA3A32212472BEEFAEFFB22124975
:1046D30052120E5BE922123DB7E022123CE512466C
:1046E300E522E08E828F83A32212499EA3A3A3A374
:1046F30022E508240BF582E509227C087D00790078
:10470300851882851983AA82AB8312129F8E828FAA
:104713008322E0850882850983A3A322A3A3A3A3FD
:10472300A3A3A3A312472B22E0FCA3E0FD22740161
:10473300124AD7A3A3E02212469974042212129FAD
:10474300850882850983A32212140D8E828F83EA42
:10475300F0A3EBF02212475C22124ADBA3A3124A16
:10476300D022C082C08312477574A5F0A3741B02C4
:104773003CB9121BD590032222124009492274F737
:104783001203C4E9FE1247AE122FAA12477C601827
:1047930088828983A3E05403700EEEFB1245C41292
:1047A3002FAA1247DF1247D90241B5EA125733EB5A
:1047B30022C082C083EAF8EBF988828983A3A3A38A
:1047C300A3A3E0FB88828983A3A3A3A31247DFA348
:1047D3001247D9023CBAE0F91211A922E0FA888201
:1047E3008983A3A32274E81203C48A088B098C1655
:1047F3008D178914741A120AE8E0F50AA3E0F50B81
:10480300741C120AE8E0F513741D120AE8780C12FE
:104813000A91125E6EEB126641242DFA7B0012128E
:10482300B18A108B11AE10AF11EE4F700302492AFB
:104833008E828F837401F08508108509117512002B
:10484300781012085D7C157D00EE241812492D1294
:10485300088F851610851711781012085D7C097D65
:1048630000EE240212492D12088F7418120AE8125E
:104873004391850A82850B83E0C0E0EE240F122F5B
:10488300A7D0E012495DC0E0EE2411122FA7D0E0BB
:10489300124958C0E0EE2410122FA7D0E0123D3188
:1048A300E513124982E4F0A3F012493C780C120A92
:1048B30073EE2417122FA7E514123CF3F8A3E0F9C3
:1048C300EE240D122FA712497C125E681266416016
:1048D30025EE2426124E58242DF8124974125E3EFA
:1048E3001241C712085D125E661243AB8A828B8344
:1048F30012494912088FEE241912663E5403601DB3
:1049030090031812477C600CEEFAEFFB123D9A12EB
:104913001CC48013EEFAEFFB1212B7800AEEFAEF13
:10492300FB900301124ABF025E7DFAEF1249332264
:104933003400FB121293740322EE241312498A22C9
:10494300E0242B123D56124952121293740322E0B3
:10495300FAA3E0FB2212496BE022124962E0221221
:1049630049662212496BA322F0850A82850B83A331
:1049730022EF3400F98A828B8312469CE50822F0E9
:10498300EE242612498A22F582EF3400F58322F5BC
:104993000CA3E0F50D750E00780C22123CEDA3A3D9
:1049A300A32274F11203C48A088B097A20124A6D78
:1049B300606D8E828F837406124A7D8E828F83A3ED
:1049C300A3A3A3123CDF8E828F83124A251249923E
:1049D30012085D7C107D00EE240612492D12088F0B
:1049E30085088285098312471FEE2416FAEF3400E7
:1049F300FB120B8B850882850983A3A3A3A3A3A31F
:104A0300A3A3A3A3E0C0E0EE241E122FA7D0E012BD
:104A13004A35C0E0EE241F122FA7D0E0124A3D0210
:104A230060D4A3A3A3A3A3124A2E22123CE9A3A3F7
:104A3300E022F01246F412520A22F0EEFAEFFB9053
:104A43000544E0F91212BD22E8F0A3E9124A532209
:104A5300F085088285098322124A5F22123D5FF89E
:104A6300A3E0F98E828F83A3A3227B001212B18A63
:104A73000A8B0BAE0AAF0BEE4F22124A5F124A4B60
:104A8300A3A3E02274F61203C4EAFEEBFF7A057BCC
:104A9300001212B1EA4B601E8A828B83740A124A97
:104AA300C58A828B83A3A31246BA8A828B83A3A36C
:104AB300A3A3F0124ABC023CFE900544E0F9121293
:104AC300BD22124AC922124ADB124AD022E0F8A3BD
:104AD300E0F922A3124ADB22F08E828F8322C08266
:104AE300C083E9901102F09003147417F0A3741CAF
:104AF300F09003167405F0A3741CF0900318748FE0
:104B0300F0A37413023CB974F71203C4EAFEEBFF7B
:104B13008908EE4F700312168390032612477C70A8
:104B230008900326802212547A88828983A3A3A340
:104B3300A3A3A3A3A3A3124B6188828983A3A3A3E3
:104B4300A3A3A3A3A3A370DEEEF0A3EF124B67A36B
:104B5300A3A3E4F0A3124B67E508F00241B51249A1
:104B630052EA4B22124B6B22124B6F22125906A3AD
:104B7300A3A32274F71203C4900326800D8E828FA1
:104B830083A3A3A3A3A3A3A3A3A3125E1BEE4F60BC
:104B9300348E828F83A3A3A3A3A3A3A3E06970DDB1
:104BA3008E828F83A3A3A3A3E06A7003A3E06B7039
:104BB300CC8E828F83A3A3A3A3A3A3E06C70BEEECA
:104BC300FAEFFB80047A007B000241B574F712030D
:104BD300C4900326125E1B9003261234656870028C
:104BE300EB697017124C3512547A90032612439DC9
:104BF300900326125E1B8030125E0EEE4F60298EEC
:104C0300828F83A3A3A3A3A3123461687002EB6909
:104C130070E68A828B83A3A3A3A3A3A3A3A3A31254
:104C23004C42A3A3A312439D12133BEEFAEFFB02E4
:104C330041B5123DA6A3A3A3A3A3A3A3A3A3221297
:104C43004E81A3A32274F01203C474FA12090D8ACD
:104C5300088B098A828B83A3A3A3A3A3A3A3A3E0A3
:104C6300600D640160098A828B831246D1600579E5
:104C730002024E53850882850983A3A3A3A3A3A39A
:104C8300A3A3E0640370157404120AE8AC82AD8335
:104C9300AA08AB09121C23E9701380D38508828507
:104CA300098312547A7404120AE812439D125E288F
:104CB3001266412432124E6C1213358A0A8B0BAEE4
:104CC3000AAF0BEE4F7003024E517C327D00790028
:104CD30012129F7402120AE8AA82AB8385088285A6
:104CE3000983A3A3A3A3A3A3A3A3A3E0F91211EB93
:104CF3007402120AE8E0C0E0EE242D122FA7D0E0E0
:104D0300F0EE242CF50AEF3400F50B7403120AE8D5
:104D1300E0850A82850B83F07901EEFAEFFB121C22
:104D23005385080C85090D750E00780C12085D7CFF
:104D33001C7D00EE240B12492D12088FEE24301235
:104D43004E58243208081249742411F8E5091265F3
:104D5300DAFCE9FD8C828D83124000242E122FA7EA
:104D630012497C1251D8125E7412085D8C828D83B5
:104D73001247278A828B8312494912088F740412BF
:104D83000AE8124E7D12439D900302124E73F09077
:104D93000302E00412520E242A125738750D0085BF
:104DA3000A82850B83E0780C12098A8A828B83E559
:104DB3000CF0EE2429122FA7E50C125CA3E4F0E516
:104DC300082415F582E509124E6674015007120A8C
:104DD300E874018004120AE8E4F0EE2427123D8609
:104DE300851882851983AA82AB831211D3E924FE25
:104DF300850882850983F0F508750900EE242E12D3
:104E03002FA7124727ECF8EDF9AA08AB0912027C89
:104E1300E88E828F83A3A3A3A3A3A3A3A3F0ECF899
:104E2300EDF9AA08AB0912027C8B09EA4509600F68
:104E33008E828F83A3A3A3A3A3A3A3A3E004F0EE73
:104E4300242012663E44081257AA79008002791082
:104E53007406023D411265D8FAE9FBEE22EE2415F1
:104E6300F582EF12520AA2E022FAA3E03400FB22F9
:104E73001246E5A3A3A3A3A3A322124E8122124A9F
:104E8300D08E828F83A3A3A3A32274F41203C4EA54
:104E9300FEEBFF12474B90114EE0F8EE242B126607
:104EA3003EC39840030250001257507015EE242B56
:104EB30012663E04125029C0E0EE2429122FA7D017
:104EC300E0F0EE242812663EFC7900800109EE240E
:104ED3002C1235E2E9C3985026750801750900E9DB
:104EE300780812098A125750550860E1E92CFC75BD
:104EF3000801750900E9780812098AE04508F0EE0F
:104F03002427125017EE242E122FA7EC8A088AF0BA
:104F1300A4F8ABF0E42BF9E098F8A3E099F9C3E81F
:104F23009508E99400EE403924271235E2125750D0
:104F33006037EE242D122FA7125023A3E4F0EC7058
:104F430054EE242012663E44201241FBC0E0EE24BE
:104F530026122FA7D0E0F0EE2430125017A3E080E2
:104F6300592429122FA774FFF090034AE0FA9011F5
:104F730051E0F508EA8508F0A4ABF075F064A4FAF3
:104F8300ADF075F064EBA42DFB8E828F83A3A3EAAF
:104F9300F0A3EB80A8EE242012663E54DF12498270
:104FA300ECF08C08EE242712663E8508F0A4FAABD9
:104FB300F0EE2430F582EF12500EFBEE241E122F7A
:104FC300A7EAF0A3EB125031C0E0EE2425122FA77D
:104FD300D0E0F0EE241C122FA7E8125037900328DC
:104FE30012477C600BECF9123D9A121CC4E970184D
:104FF300EE240BFAEF3400FB121C41800B7BE9EE2D
:105003002422F582EF1251E2022E2912520A2AFAC1
:10501300A3E03B22F582EF12501E2212579CFA2284
:105023001246E5A3F022F0EE242A12520722124B75
:105033006BA3E022F0A3E4F02274F41203C4900300
:1050430026125E1B12140D8A0A8B0B7CFF7DFF80D8
:1050530020E0C398FAA3E099FBC3EA9CEB9D500EB2
:105063008E828F83A3A3E0C398FCA3E099FD125E15
:105073000EEE4F6059125476E50AC398F8E50B9982
:10508300F98E828F8312585CC3E89AE99B8E828FD4
:1050930083A3A340BCA3A3A3A3E06402701DEE24D7
:1050A3000B125753600CEE2410122FA712585E12E6
:1050B30012B7EEFAEFFB121C1D8007EEFAEFFB129C
:1050C3001C117A017B00901102123D2B801474FF96
:1050D3006C700374FF6D600A7A017B0090110212F9
:1050E3003CCC022E2974F01203C48A088B09ECFA13
:1050F300EDFB890A7C01125E281257428A0C8B0D44
:10510300AE0CAF0DEE4F70030251D5E50A600302FA
:1051130051D5E5081251D8E0F8EE242812663E680E
:1051230060030251D5EE242C125017E82AF8E43418
:1051330000F98E828F83A3A3A3A3A3A3A3A3E0FA5F
:10514300E89AE99400C365D03340141254611257AE
:1051530056700C7B00125E21E5091251E280731236
:1051630054611257567031EE242C12663EF9EE2428
:1051730029122FA77508FF750900E9780812098A13
:10518300E508F0EE242A122FA7E5081251FF29F0B3
:10519300EE242B123D208022E5082414F8E509347F
:1051A30000F9E0C0E0EE242A122FA7D0E01251FA52
:1051B300C0E0EE2429122FA7D0E012520E242D12A4
:1051C3002FA7123D71A31250377A01FB90110212DF
:1051D3003D2B023D442413F582E50912498D221229
:1051E300501EEE241412498A1247D9EEFAEFFB122D
:1051F3001C1D22EAF0A3EB12430DE022F0EE24285B
:1052030012520722F582EF12579C22F0125E82F0AF
:10521300A3EBF0EE2274E81203C474FD12090DE946
:10522300851882851983F08A0A8B0B8C168D177467
:105233001B120AE8125459741D120AE8780C120A58
:10524300918A828B83A3A3E0F91211C78A128B136D
:10525300EA451370077A007B000254547A127B00EC
:105263001213358A088B09AE08AF09EE4F7003029B
:1052730054507C127D00790012129F7401120AE8C7
:10528300AA82AB83850A82850B83A3A3E0F912115B
:10529300EBEE240FF508EF125E567402120AE8E0F3
:1052A300850882850983F07902EEFAEFFB121C531D
:1052B300851682851783124E7DE8F0A3E91254A563
:1052C3008E828F83A3A3A3A3A3A3A3F07514FF7557
:1052D3001500850882850983E0781412098A122F44
:1052E300A4E514F0851282851383A3E0F8124452D7
:1052F300C0E0EE240B122FA7D0E01254AFF508EE56
:10530300240D122FA7E508F012575BE08508F0A4DF
:105313002424FAE5F03400FB1212B18A088B09EE5B
:105323002410122FA7124752EA450970030254456D
:105333008A828B83741A1250378A828B83A3A3F0D9
:10534300A312549912548212439DAC16AD17EA244A
:1053530006FAEB3400FB1211E5850A82850B83A361
:10536300A3A3E0C0E0E508240FF582E509122FAA04
:10537300D0E0F090036712547AE508241012546ABF
:105383001254BFA312547AE508241212546A124924
:105393005DC0E0125461122FAAD0E0F0E50A125763
:1053A30033E50B126641C0E0E5082415F582E509F3
:1053B300122FAAD0E0125490C0E0E5082416F5821B
:1053C300E509122FAAD0E0126645E0C0E0E5082403
:1053D30017F582E509122FAAD0E0126645A3E0C0B3
:1053E300E0E5082418F582E509122FAAD0E0124659
:1053F300AEC0E0E5082419F582E509122FAAD0E032
:10540300F0E508241AF582E509122FAA780C120A8E
:1054130073E5082424F8E5093400F9E5082422F5A6
:1054230082E50912439AE50A125E23E50B126641EF
:10543300C0E0E508241FF582E509122FAAD0E0F0A9
:10544300800BEEFAEFFB121C1D7E007F00EEFAEFDD
:10545300FB7403025E7AE0F510A3E0F51122E50880
:105463002414F582E50922F582E50912498DE8F055
:10547300A3E9228E828F8312547E22124AD022E025
:10548300F8A3E0F98A828B83A3A3A3A322F0851058
:1054930082851183E02212549D22124966A3A3A39D
:1054A300A322F0125E30E50B12520A22F01254B717
:1054B30012520A22E50A125E6FE50B2212549DA3D3
:1054C300A3A32274E81203C48A0A8B0B8C108D11D8
:1054D30089147418120AE8E0F516A3E0F517741A94
:1054E300120AE8780C120A91750900EA2413F5826E
:1054F300EB126641F50890032812477C6011A90856
:10550300900328123D97121CC4E960030257307CB4
:105513000285108285118312585E125E30E50B12EC
:1055230057428A128B13AE12AF13EE4F704B850A9C
:1055330082850B83A3E0A2E04003025730780C126C
:1055430008597816120861A914AC10AD11AA0AAB58
:105553000B121BFF740612088F8A0C8B0DAE0CAF57
:105563000DEE4F70030257308E828F83A3A3A3A344
:10557300A3A3A3A3E5081257AA85080C8E828F83E1
:10558300A3A3A3A3A3A3A3A3E024FFF8E434FFF9F5
:10559300E8650C7001E97003750901EE240B1257DD
:1055A3005370030256E3850A82850B83A3E0A2E0CE
:1055B300500375080012577CE50C98E499C365D035
:1055C30033401EE0F8EE240E12663E28F0750CFF01
:1055D300750D00E8780C12098AEE125733EF125753
:1055E30049125E37E50B1241C712085D1243A885C5
:1055F300080CEE240D12663E850CF0A4F8A9F0EE1B
:10560300241012663E242212402828FAA3E039FB14
:1056130012438B12088F750C01125767780C12090D
:105623008A12663B450CF0E509A2E05065EE240CB6
:1056330012573812576704780C12098A8A828B83AF
:10564300E0450C1257A285080C850CF0A4F81254FF
:10565300B7126641FCE82CFCE5F03400FDEE2410A3
:10566300122FA71257751258F3F47026EE240BF578
:105673000CEF3400F50DEE2410122FA712585E859F
:105683000C82850D83124ABF850C82850D8374FFBE
:10569300804D12474B90034AE0FA901151E0F50C0C
:1056A300EA850CF0A4FAABF0F8EBF990114EE0F5B3
:1056B3000CE8850CF0A4F8ACF0850CF0E9A42CF907
:1056C300EA28F8EB39F9E875F064A4F8AAF075F064
:1056D30064E9A42AF98E828F83A3A3E8F0A3E9F0F7
:1056E30012577C125E05E8650C7001E9600EEE242A
:1056F3000C1257536006E509A2E05031EE240E1256
:10570300663EC0E012575BD0E0F012663BC0E0E5B6
:105713000A2414F582E50B122FAAD0E0F0AC0AADEF
:105723000B85108285118312585E120B13025E7D66
:10573300240CF582221265D8FAE9FB750CFF2212BC
:10574300584D121C352212498DE50CF022EE242906
:10575300F582EF12520AF422E50A2413F582E50BCF
:1057630012498D22750D00125792F5F0E50884E574
:10577300F022E02420123D562285080CEE240E125E
:105783005207F8125792FAE82AF8E43400F922EEA5
:10579300240FF582EF12579C223400F583E022F0A8
:1057A300EE240D12520722F07A017B00901102E0E1
:1057B300F91212E722C082C083901102124ABF027B
:1057C3003CBA74F41203C48A088B09EB5480703B0F
:1057D300EAA2E05047121C0BE5086401FAAB09800A
:1057E3003F8E828F83E06401701A12493C1206B81F
:1057F300122D53120861EE2412125836121BF9743B
:105803000612088FEEFAEFFB1212B790110212582C
:105813002670CEAA08E5096480FB80047A007B0029
:10582300022E29E0F91212C38A0A8B0BAE0AAF0BC0
:10583300EE4F22F582EF12584DEE2402FCEF3400B6
:10584300FDEE2418FAEF3400FB2212579CF9228E46
:10585300828F83A3A3A3A3A3A3A3A312495222C00A
:1058630082C08390032A80048C828D831258A460A3
:10587300298C828D83A3A3E069600574FF6970E8B6
:105883008C828D83A3A3A3E06A7003A3E06B70D81B
:10589300EC2403FAED3400FB80047A007B00023C25
:1058A300BA12472BEC4D2274F71203C4E9FC74FEC1
:1058B3006C70047D0180027D0090032A80096C7066
:1058C300027D018882898312477C601F88828983D5
:1058D300A3A3A3E06A7003A3E06B70E7EDA2E088E3
:1058E300828983A3A3E050D6F9800279FE0241B5F1
:1058F300ECF0A3EDF08A828B83E02212590222128C
:10590300590622F08E828F83A3A3A322740D12085B
:105913008F7F0302063374F61203C48C828D83A334
:10592300A3125B17F0EA2417F582EB126641C0E07D
:10593300EC125E6FED122FAAD0E0F0EA241DF5827F
:10594300EB122FAA12547AEC1263D1ED122FAA1282
:105953005B17A3F0A3F01263D0EB122FAA125B091B
:10596300A3A3A3A3A3A3EEF0A3EF1251FAFE8C8289
:105973008D83125B3674035EFEC39403400FEC24E5
:105983000D12419DEC241012419D025AF1EE600567
:1059930074026E70748C828D83E0540CFE740C6EF2
:1059A3007003025A8EE0A2E4400D88828983E08C62
:1059B300828D83A3125B6074086E6003025A8EECBF
:1059C300125733ED123DF2F08A828B83A3A3A31205
:1059D3005C6170148C828D83E0440C125B25A3A35D
:1059E300125B09EEF0A3EFF08C828D83E0A2E4401A
:1059F30018125AF4125B43125AFDA3A3125B438C91
:105A0300828D83A3A3A3125B3688828983E0C0E0DF
:105A1300EC125E32ED122FAAD0E0125B368C828D2F
:105A230083E0A2E7507C88828983E0FE8C828D83A9
:105A3300125B6074FC5E60030259818C828D83A3C8
:105A4300E05403640370030259818C828D83A3E0C5
:105A53005403605188828983E0C0E0EC2413F5820B
:105A6300ED122FAAD0E0125B618C828D83E0540388
:105A73006402703188828983E0C0E0EC2414F582EB
:105A8300ED122FAAD0E0125B61801AEC240C1241B4
:105A93009D740C6E60030259CB125AF4125B4E02D2
:105AA30059EBA3E4F0EC125E39ED12439AEC2410A7
:105AB300FEED3400FFEA241DF582EB126641F50882
:105AC3008E828F83E0C3982508F508F0EA2417F83F
:105AD300EB123D82C39508C0E0EC1263D1ED122FA7
:105AE300AAD0E01251FAC395085003025981023C2F
:105AF300FE88828983E0125AFD22F508A3E0FFE5C0
:105B0300088C828D8322E0FEA3E0FF8C828D83A329
:105B1300A3A3A322E4125B1C22F08C828D83A3A394
:105B2300A322125B2DA3A3A3A322F08A828B83A3B8
:105B3300A3A322125B3EA882A9832212430DA322B0
